{
  "contractName": "ManufacturerRole",
  "abi": [
    {
      "inputs": [],
      "payable": false,
      "stateMutability": "nonpayable",
      "type": "constructor"
    },
    {
      "anonymous": false,
      "inputs": [
        {
          "indexed": true,
          "name": "account",
          "type": "address"
        }
      ],
      "name": "ManufacturerAdded",
      "type": "event"
    },
    {
      "anonymous": false,
      "inputs": [
        {
          "indexed": true,
          "name": "account",
          "type": "address"
        }
      ],
      "name": "ManufacturerRemoved",
      "type": "event"
    },
    {
      "constant": true,
      "inputs": [
        {
          "name": "account",
          "type": "address"
        }
      ],
      "name": "isManufacturer",
      "outputs": [
        {
          "name": "",
          "type": "bool"
        }
      ],
      "payable": false,
      "stateMutability": "view",
      "type": "function"
    },
    {
      "constant": false,
      "inputs": [
        {
          "name": "account",
          "type": "address"
        }
      ],
      "name": "addManufacturer",
      "outputs": [],
      "payable": false,
      "stateMutability": "nonpayable",
      "type": "function"
    },
    {
      "constant": false,
      "inputs": [],
      "name": "renounceManufacturer",
      "outputs": [],
      "payable": false,
      "stateMutability": "nonpayable",
      "type": "function"
    }
  ],
  "bytecode": "0x608060405234801561001057600080fd5b5061002333640100000000610028810204565b610105565b6100406000826401000000006101e561007782021704565b604051600160a060020a038216907f561138658ca49a8540dc70dcfe64c9026c1c5b9344642242dd6562970f9c127890600090a250565b600160a060020a038116151561008c57600080fd5b61009f82826401000000006100ce810204565b156100a957600080fd5b600160a060020a0316600090815260209190915260409020805460ff19166001179055565b6000600160a060020a03821615156100e557600080fd5b50600160a060020a03166000908152602091909152604090205460ff1690565b6102ab806101146000396000f3fe6080604052600436106100565763ffffffff7c010000000000000000000000000000000000000000000000000000000060003504166317d4a491811461005b5780635f8a5afa146100a2578063de07f34e146100d7575b600080fd5b34801561006757600080fd5b5061008e6004803603602081101561007e57600080fd5b5035600160a060020a03166100ec565b604080519115158252519081900360200190f35b3480156100ae57600080fd5b506100d5600480360360208110156100c557600080fd5b5035600160a060020a03166100ff565b005b3480156100e357600080fd5b506100d561011f565b60006100f960008361012a565b92915050565b610108336100ec565b151561011357600080fd5b61011c81610161565b50565b610128336101a3565b565b6000600160a060020a038216151561014157600080fd5b50600160a060020a03166000908152602091909152604090205460ff1690565b61016c6000826101e5565b604051600160a060020a038216907f561138658ca49a8540dc70dcfe64c9026c1c5b9344642242dd6562970f9c127890600090a250565b6101ae600082610233565b604051600160a060020a038216907f2fed5abf6a80d6dfe30b4895481b2fc5d7dce5f8f7b931832f4a2947d5040c7f90600090a250565b600160a060020a03811615156101fa57600080fd5b610204828261012a565b1561020e57600080fd5b600160a060020a0316600090815260209190915260409020805460ff19166001179055565b600160a060020a038116151561024857600080fd5b610252828261012a565b151561025d57600080fd5b600160a060020a0316600090815260209190915260409020805460ff1916905556fea165627a7a72305820ffe76c3ac98b299bcb44406438059346f7f4f26275964b2103970531fdee00890029",
  "source": "pragma solidity ^0.5.0;\r\n\r\n import \"./Roles.sol\";\r\n\r\n \r\ncontract ManufacturerRole{\r\n  using Roles for Roles.Role; \r\n  event ManufacturerAdded(address indexed account);\r\n  event ManufacturerRemoved(address indexed account);\r\n\r\n   Roles.Role private manufacturers;\r\n\r\n   constructor() public {\r\n    _addManufacturer(msg.sender);\r\n  }\r\n\r\n   modifier onlyManufacturer() {\r\n    require(isManufacturer(msg.sender));\r\n    _;\r\n  }\r\n\r\n   function isManufacturer(address account) public view returns (bool) {\r\n    return Roles.has(manufacturers, account);\r\n  }\r\n\r\n   function addManufacturer(address account) public onlyManufacturer {\r\n    _addManufacturer(account);\r\n  }\r\n\r\n   function renounceManufacturer() public {\r\n    _removeManufacturer(msg.sender);\r\n  }\r\n\r\n   function _addManufacturer(address account) internal {\r\n    Roles.add(manufacturers, account);\r\n    emit ManufacturerAdded(account);\r\n  }\r\n\r\n   function _removeManufacturer(address account) internal {\r\n    Roles.remove(manufacturers, account);\r\n    emit ManufacturerRemoved(account);\r\n  }\r\n}",
  "sourcePath": "C:/Users/remove/cap_alpha/contracts/ManufacturerRole.sol",
  "compiler": {
    "name": "solc",
    "version": "0.5.0+commit.1d4f565a.Emscripten.clang"
  },
  "schemaVersion": "3.0.1",
  "updatedAt": "2021-07-28T17:32:10.368Z",
  "devdoc": {
    "methods": {}
  },
  "userdoc": {
    "methods": {}
  }
}