{
  "contractName": "PatientRole",
  "abi": [
    {
      "inputs": [],
      "payable": false,
      "stateMutability": "nonpayable",
      "type": "constructor"
    },
    {
      "anonymous": false,
      "inputs": [
        {
          "indexed": true,
          "name": "account",
          "type": "address"
        }
      ],
      "name": "PatientAdded",
      "type": "event"
    },
    {
      "anonymous": false,
      "inputs": [
        {
          "indexed": true,
          "name": "account",
          "type": "address"
        }
      ],
      "name": "PatientRemoved",
      "type": "event"
    },
    {
      "constant": true,
      "inputs": [
        {
          "name": "account",
          "type": "address"
        }
      ],
      "name": "isPatient",
      "outputs": [
        {
          "name": "",
          "type": "bool"
        }
      ],
      "payable": false,
      "stateMutability": "view",
      "type": "function"
    },
    {
      "constant": false,
      "inputs": [
        {
          "name": "account",
          "type": "address"
        }
      ],
      "name": "addPatient",
      "outputs": [],
      "payable": false,
      "stateMutability": "nonpayable",
      "type": "function"
    },
    {
      "constant": false,
      "inputs": [],
      "name": "renouncePatient",
      "outputs": [],
      "payable": false,
      "stateMutability": "nonpayable",
      "type": "function"
    }
  ],
  "bytecode": "0x608060405234801561001057600080fd5b5061002333640100000000610028810204565b610105565b6100406000826401000000006101e561007782021704565b604051600160a060020a038216907fa58cff07db0adda3ab7a40bd2f18ab57210bf38391a52ffd2e8eee6b8bdec71a90600090a250565b600160a060020a038116151561008c57600080fd5b61009f82826401000000006100ce810204565b156100a957600080fd5b600160a060020a0316600090815260209190915260409020805460ff19166001179055565b6000600160a060020a03821615156100e557600080fd5b50600160a060020a03166000908152602091909152604090205460ff1690565b6102ab806101146000396000f3fe6080604052600436106100565763ffffffff7c01000000000000000000000000000000000000000000000000000000006000350416636d263ceb811461005b57806381a07c36146100905780638f9c79ed146100a5575b600080fd5b34801561006757600080fd5b5061008e6004803603602081101561007e57600080fd5b5035600160a060020a03166100ec565b005b34801561009c57600080fd5b5061008e61010c565b3480156100b157600080fd5b506100d8600480360360208110156100c857600080fd5b5035600160a060020a0316610117565b604080519115158252519081900360200190f35b6100f533610117565b151561010057600080fd5b6101098161012a565b50565b6101153361016c565b565b60006101246000836101ae565b92915050565b6101356000826101e5565b604051600160a060020a038216907fa58cff07db0adda3ab7a40bd2f18ab57210bf38391a52ffd2e8eee6b8bdec71a90600090a250565b610177600082610233565b604051600160a060020a038216907f053a4badf166f01c4b02f6bcb71d2d67734470d0866282e291e73001aa25c76990600090a250565b6000600160a060020a03821615156101c557600080fd5b50600160a060020a03166000908152602091909152604090205460ff1690565b600160a060020a03811615156101fa57600080fd5b61020482826101ae565b1561020e57600080fd5b600160a060020a0316600090815260209190915260409020805460ff19166001179055565b600160a060020a038116151561024857600080fd5b61025282826101ae565b151561025d57600080fd5b600160a060020a0316600090815260209190915260409020805460ff1916905556fea165627a7a72305820a611393868ba806e4c2580c9cbe6cea43881d7777f35243df9ae52b7ed9725e80029",
  "source": "pragma solidity ^0.5.0;\r\n\r\n import \"./Roles.sol\";\r\n\r\n contract PatientRole {\r\n  using Roles for Roles.Role;\r\n\r\n   event PatientAdded(address indexed account);\r\n  event PatientRemoved(address indexed account);\r\n\r\n   Roles.Role private patients;\r\n\r\n   constructor() public {\r\n    _addPatient(msg.sender);\r\n  }\r\n\r\n   modifier onlyPatient() {\r\n    require(isPatient(msg.sender));\r\n    _;\r\n  }\r\n\r\n   function isPatient(address account) public view returns (bool) {\r\n    return Roles.has(patients, account);\r\n  }\r\n\r\n   function addPatient(address account) public onlyPatient {\r\n    _addPatient(account);\r\n  }\r\n\r\n   function renouncePatient() public {\r\n    _removePatient(msg.sender);\r\n  }\r\n\r\n   function _addPatient(address account) internal {\r\n    Roles.add(patients, account);\r\n    emit PatientAdded(account);\r\n  }\r\n\r\n   function _removePatient(address account) internal {\r\n    Roles.remove(patients, account);\r\n    emit PatientRemoved(account);\r\n  }\r\n}",
  "sourcePath": "C:/Users/remove/cap_alpha/contracts/PatientRole.sol",
  "compiler": {
    "name": "solc",
    "version": "0.5.0+commit.1d4f565a.Emscripten.clang"
  },
  "schemaVersion": "3.0.1",
  "updatedAt": "2021-07-28T17:32:10.370Z",
  "devdoc": {
    "methods": {}
  },
  "userdoc": {
    "methods": {}
  }
}