{
  "contractName": "PharmacistRole",
  "abi": [
    {
      "inputs": [],
      "payable": false,
      "stateMutability": "nonpayable",
      "type": "constructor"
    },
    {
      "anonymous": false,
      "inputs": [
        {
          "indexed": true,
          "name": "account",
          "type": "address"
        }
      ],
      "name": "PharmacistAdded",
      "type": "event"
    },
    {
      "anonymous": false,
      "inputs": [
        {
          "indexed": true,
          "name": "account",
          "type": "address"
        }
      ],
      "name": "PharmacistRemoved",
      "type": "event"
    },
    {
      "constant": true,
      "inputs": [
        {
          "name": "account",
          "type": "address"
        }
      ],
      "name": "isPharmacist",
      "outputs": [
        {
          "name": "",
          "type": "bool"
        }
      ],
      "payable": false,
      "stateMutability": "view",
      "type": "function"
    },
    {
      "constant": false,
      "inputs": [
        {
          "name": "account",
          "type": "address"
        }
      ],
      "name": "addPharmacist",
      "outputs": [],
      "payable": false,
      "stateMutability": "nonpayable",
      "type": "function"
    },
    {
      "constant": false,
      "inputs": [],
      "name": "renouncePharmacist",
      "outputs": [],
      "payable": false,
      "stateMutability": "nonpayable",
      "type": "function"
    }
  ],
  "bytecode": "0x608060405234801561001057600080fd5b5061002333640100000000610028810204565b610105565b61004060008264010000000061023161007782021704565b604051600160a060020a038216907f5a4264410853372bdd7255ebc9624cb523fc039cd6f9f1855165194738125f6390600090a250565b600160a060020a038116151561008c57600080fd5b61009f82826401000000006100ce810204565b156100a957600080fd5b600160a060020a0316600090815260209190915260409020805460ff19166001179055565b6000600160a060020a03821615156100e557600080fd5b50600160a060020a03166000908152602091909152604090205460ff1690565b6102ab806101146000396000f3fe6080604052600436106100565763ffffffff7c01000000000000000000000000000000000000000000000000000000006000350416635ae63247811461005b57806382946ee214610072578063c09e2693146100b9575b600080fd5b34801561006757600080fd5b506100706100ec565b005b34801561007e57600080fd5b506100a56004803603602081101561009557600080fd5b5035600160a060020a03166100f7565b604080519115158252519081900360200190f35b3480156100c557600080fd5b50610070600480360360208110156100dc57600080fd5b5035600160a060020a031661010a565b6100f53361012a565b565b600061010460008361016c565b92915050565b610113336100f7565b151561011e57600080fd5b610127816101a3565b50565b6101356000826101e5565b604051600160a060020a038216907f9d17ec7e57a5118cf27abf33370bcc6f007c27a9706ab4cc473a76fe552447d290600090a250565b6000600160a060020a038216151561018357600080fd5b50600160a060020a03166000908152602091909152604090205460ff1690565b6101ae600082610231565b604051600160a060020a038216907f5a4264410853372bdd7255ebc9624cb523fc039cd6f9f1855165194738125f6390600090a250565b600160a060020a03811615156101fa57600080fd5b610204828261016c565b151561020f57600080fd5b600160a060020a0316600090815260209190915260409020805460ff19169055565b600160a060020a038116151561024657600080fd5b610250828261016c565b1561025a57600080fd5b600160a060020a0316600090815260209190915260409020805460ff1916600117905556fea165627a7a7230582000025ff87bf6439860674b86b117d298384b37d1e44c834772da8ead38fe64d80029",
  "source": "pragma solidity ^0.5.0;\r\n\r\n \r\nimport \"./Roles.sol\";\r\n\r\n \r\ncontract PharmacistRole {\r\n  using Roles for Roles.Role;\r\n\r\n   \r\n  event PharmacistAdded(address indexed account);\r\n  event PharmacistRemoved(address indexed account);\r\n\r\n   Roles.Role private pharmacists;\r\n   constructor() public {\r\n    _addPharmacist(msg.sender);\r\n  }\r\n\r\n   modifier onlyPharmacist() {\r\n    require(isPharmacist(msg.sender));\r\n    _;\r\n  }\r\n\r\n   function isPharmacist(address account) public view returns (bool) {\r\n    return Roles.has(pharmacists, account);\r\n  }\r\n\r\n   function addPharmacist(address account) public onlyPharmacist {\r\n    _addPharmacist(account);\r\n  }\r\n\r\n   function renouncePharmacist() public {\r\n    _removePharmacist(msg.sender);\r\n  }\r\n\r\n   function _addPharmacist(address account) internal {\r\n    Roles.add(pharmacists, account);\r\n    emit PharmacistAdded(account);\r\n  }\r\n\r\n   function _removePharmacist(address account) internal {\r\n    Roles.remove(pharmacists, account);\r\n    emit PharmacistRemoved(account);\r\n  }\r\n}",
  "sourcePath": "C:/Users/remove/cap_alpha/contracts/PharmacistRole.sol",
  "compiler": {
    "name": "solc",
    "version": "0.5.0+commit.1d4f565a.Emscripten.clang"
  },
  "schemaVersion": "3.0.1",
  "updatedAt": "2021-07-28T17:32:10.371Z",
  "devdoc": {
    "methods": {}
  },
  "userdoc": {
    "methods": {}
  }
}